{
  "_format": "hh-sol-artifact-1",
  "contractName": "NFTMarketplace",
  "sourceName": "contracts/NFTMarketplace.sol",
  "abi": [
    {
      "inputs": [],
      "stateMutability": "nonpayable",
      "type": "constructor"
    },
    {
      "anonymous": false,
      "inputs": [
        {
          "indexed": true,
          "internalType": "address",
          "name": "owner",
          "type": "address"
        },
        {
          "indexed": true,
          "internalType": "address",
          "name": "approved",
          "type": "address"
        },
        {
          "indexed": true,
          "internalType": "uint256",
          "name": "tokenId",
          "type": "uint256"
        }
      ],
      "name": "Approval",
      "type": "event"
    },
    {
      "anonymous": false,
      "inputs": [
        {
          "indexed": true,
          "internalType": "address",
          "name": "owner",
          "type": "address"
        },
        {
          "indexed": true,
          "internalType": "address",
          "name": "operator",
          "type": "address"
        },
        {
          "indexed": false,
          "internalType": "bool",
          "name": "approved",
          "type": "bool"
        }
      ],
      "name": "ApprovalForAll",
      "type": "event"
    },
    {
      "anonymous": false,
      "inputs": [
        {
          "indexed": true,
          "internalType": "uint256",
          "name": "tokenId",
          "type": "uint256"
        },
        {
          "indexed": false,
          "internalType": "address",
          "name": "seller",
          "type": "address"
        },
        {
          "indexed": false,
          "internalType": "address",
          "name": "owner",
          "type": "address"
        },
        {
          "indexed": false,
          "internalType": "uint256",
          "name": "price",
          "type": "uint256"
        },
        {
          "indexed": false,
          "internalType": "bool",
          "name": "sold",
          "type": "bool"
        }
      ],
      "name": "MarketItemCreated",
      "type": "event"
    },
    {
      "anonymous": false,
      "inputs": [
        {
          "indexed": true,
          "internalType": "address",
          "name": "from",
          "type": "address"
        },
        {
          "indexed": true,
          "internalType": "address",
          "name": "to",
          "type": "address"
        },
        {
          "indexed": true,
          "internalType": "uint256",
          "name": "tokenId",
          "type": "uint256"
        }
      ],
      "name": "Transfer",
      "type": "event"
    },
    {
      "inputs": [
        {
          "internalType": "address",
          "name": "to",
          "type": "address"
        },
        {
          "internalType": "uint256",
          "name": "tokenId",
          "type": "uint256"
        }
      ],
      "name": "approve",
      "outputs": [],
      "stateMutability": "nonpayable",
      "type": "function"
    },
    {
      "inputs": [
        {
          "internalType": "address",
          "name": "owner",
          "type": "address"
        }
      ],
      "name": "balanceOf",
      "outputs": [
        {
          "internalType": "uint256",
          "name": "",
          "type": "uint256"
        }
      ],
      "stateMutability": "view",
      "type": "function"
    },
    {
      "inputs": [
        {
          "internalType": "uint256",
          "name": "tokenId",
          "type": "uint256"
        }
      ],
      "name": "createMarketSale",
      "outputs": [],
      "stateMutability": "payable",
      "type": "function"
    },
    {
      "inputs": [
        {
          "internalType": "string",
          "name": "tokenURI",
          "type": "string"
        },
        {
          "internalType": "uint256",
          "name": "price",
          "type": "uint256"
        }
      ],
      "name": "createToken",
      "outputs": [
        {
          "internalType": "uint256",
          "name": "",
          "type": "uint256"
        }
      ],
      "stateMutability": "payable",
      "type": "function"
    },
    {
      "inputs": [],
      "name": "fetchItemsListed",
      "outputs": [
        {
          "components": [
            {
              "internalType": "uint256",
              "name": "tokenId",
              "type": "uint256"
            },
            {
              "internalType": "address payable",
              "name": "seller",
              "type": "address"
            },
            {
              "internalType": "address payable",
              "name": "owner",
              "type": "address"
            },
            {
              "internalType": "uint256",
              "name": "price",
              "type": "uint256"
            },
            {
              "internalType": "bool",
              "name": "sold",
              "type": "bool"
            }
          ],
          "internalType": "struct NFTMarketplace.MarketItem[]",
          "name": "",
          "type": "tuple[]"
        }
      ],
      "stateMutability": "view",
      "type": "function"
    },
    {
      "inputs": [],
      "name": "fetchMarketItems",
      "outputs": [
        {
          "components": [
            {
              "internalType": "uint256",
              "name": "tokenId",
              "type": "uint256"
            },
            {
              "internalType": "address payable",
              "name": "seller",
              "type": "address"
            },
            {
              "internalType": "address payable",
              "name": "owner",
              "type": "address"
            },
            {
              "internalType": "uint256",
              "name": "price",
              "type": "uint256"
            },
            {
              "internalType": "bool",
              "name": "sold",
              "type": "bool"
            }
          ],
          "internalType": "struct NFTMarketplace.MarketItem[]",
          "name": "",
          "type": "tuple[]"
        }
      ],
      "stateMutability": "view",
      "type": "function"
    },
    {
      "inputs": [],
      "name": "fetchMyNFTs",
      "outputs": [
        {
          "components": [
            {
              "internalType": "uint256",
              "name": "tokenId",
              "type": "uint256"
            },
            {
              "internalType": "address payable",
              "name": "seller",
              "type": "address"
            },
            {
              "internalType": "address payable",
              "name": "owner",
              "type": "address"
            },
            {
              "internalType": "uint256",
              "name": "price",
              "type": "uint256"
            },
            {
              "internalType": "bool",
              "name": "sold",
              "type": "bool"
            }
          ],
          "internalType": "struct NFTMarketplace.MarketItem[]",
          "name": "",
          "type": "tuple[]"
        }
      ],
      "stateMutability": "view",
      "type": "function"
    },
    {
      "inputs": [
        {
          "internalType": "uint256",
          "name": "tokenId",
          "type": "uint256"
        }
      ],
      "name": "getApproved",
      "outputs": [
        {
          "internalType": "address",
          "name": "",
          "type": "address"
        }
      ],
      "stateMutability": "view",
      "type": "function"
    },
    {
      "inputs": [],
      "name": "getListingPrice",
      "outputs": [
        {
          "internalType": "uint256",
          "name": "",
          "type": "uint256"
        }
      ],
      "stateMutability": "view",
      "type": "function"
    },
    {
      "inputs": [
        {
          "internalType": "address",
          "name": "owner",
          "type": "address"
        },
        {
          "internalType": "address",
          "name": "operator",
          "type": "address"
        }
      ],
      "name": "isApprovedForAll",
      "outputs": [
        {
          "internalType": "bool",
          "name": "",
          "type": "bool"
        }
      ],
      "stateMutability": "view",
      "type": "function"
    },
    {
      "inputs": [],
      "name": "name",
      "outputs": [
        {
          "internalType": "string",
          "name": "",
          "type": "string"
        }
      ],
      "stateMutability": "view",
      "type": "function"
    },
    {
      "inputs": [
        {
          "internalType": "uint256",
          "name": "tokenId",
          "type": "uint256"
        }
      ],
      "name": "ownerOf",
      "outputs": [
        {
          "internalType": "address",
          "name": "",
          "type": "address"
        }
      ],
      "stateMutability": "view",
      "type": "function"
    },
    {
      "inputs": [
        {
          "internalType": "uint256",
          "name": "tokenId",
          "type": "uint256"
        },
        {
          "internalType": "uint256",
          "name": "price",
          "type": "uint256"
        }
      ],
      "name": "resellToken",
      "outputs": [],
      "stateMutability": "payable",
      "type": "function"
    },
    {
      "inputs": [
        {
          "internalType": "address",
          "name": "from",
          "type": "address"
        },
        {
          "internalType": "address",
          "name": "to",
          "type": "address"
        },
        {
          "internalType": "uint256",
          "name": "tokenId",
          "type": "uint256"
        }
      ],
      "name": "safeTransferFrom",
      "outputs": [],
      "stateMutability": "nonpayable",
      "type": "function"
    },
    {
      "inputs": [
        {
          "internalType": "address",
          "name": "from",
          "type": "address"
        },
        {
          "internalType": "address",
          "name": "to",
          "type": "address"
        },
        {
          "internalType": "uint256",
          "name": "tokenId",
          "type": "uint256"
        },
        {
          "internalType": "bytes",
          "name": "data",
          "type": "bytes"
        }
      ],
      "name": "safeTransferFrom",
      "outputs": [],
      "stateMutability": "nonpayable",
      "type": "function"
    },
    {
      "inputs": [
        {
          "internalType": "address",
          "name": "operator",
          "type": "address"
        },
        {
          "internalType": "bool",
          "name": "approved",
          "type": "bool"
        }
      ],
      "name": "setApprovalForAll",
      "outputs": [],
      "stateMutability": "nonpayable",
      "type": "function"
    },
    {
      "inputs": [
        {
          "internalType": "bytes4",
          "name": "interfaceId",
          "type": "bytes4"
        }
      ],
      "name": "supportsInterface",
      "outputs": [
        {
          "internalType": "bool",
          "name": "",
          "type": "bool"
        }
      ],
      "stateMutability": "view",
      "type": "function"
    },
    {
      "inputs": [],
      "name": "symbol",
      "outputs": [
        {
          "internalType": "string",
          "name": "",
          "type": "string"
        }
      ],
      "stateMutability": "view",
      "type": "function"
    },
    {
      "inputs": [
        {
          "internalType": "uint256",
          "name": "tokenId",
          "type": "uint256"
        }
      ],
      "name": "tokenURI",
      "outputs": [
        {
          "internalType": "string",
          "name": "",
          "type": "string"
        }
      ],
      "stateMutability": "view",
      "type": "function"
    },
    {
      "inputs": [
        {
          "internalType": "address",
          "name": "from",
          "type": "address"
        },
        {
          "internalType": "address",
          "name": "to",
          "type": "address"
        },
        {
          "internalType": "uint256",
          "name": "tokenId",
          "type": "uint256"
        }
      ],
      "name": "transferFrom",
      "outputs": [],
      "stateMutability": "nonpayable",
      "type": "function"
    },
    {
      "inputs": [
        {
          "internalType": "uint256",
          "name": "_listingPrice",
          "type": "uint256"
        }
      ],
      "name": "updateListingPrice",
      "outputs": [],
      "stateMutability": "payable",
      "type": "function"
    }
  ],
  "bytecode": "0x60806040526658d15e176280006009553480156200001c57600080fd5b506040518060400160405280601081526020017f4d657461766572736520546f6b656e73000000000000000000000000000000008152506040518060400160405280600481526020017f4d4554540000000000000000000000000000000000000000000000000000000081525081600090816200009a919062000370565b508060019081620000ac919062000370565b50505033600a60006101000a81548173ffffffffffffffffffffffffffffffffffffffff021916908373ffffffffffffffffffffffffffffffffffffffff16021790555062000457565b600081519050919050565b7f4e487b7100000000000000000000000000000000000000000000000000000000600052604160045260246000fd5b7f4e487b7100000000000000000000000000000000000000000000000000000000600052602260045260246000fd5b600060028204905060018216806200017857607f821691505b6020821081036200018e576200018d62000130565b5b50919050565b60008190508160005260206000209050919050565b60006020601f8301049050919050565b600082821b905092915050565b600060088302620001f87fffffffffffffffffffffffffffffffffffffffffffffffffffffffffffffffff82620001b9565b620002048683620001b9565b95508019841693508086168417925050509392505050565b6000819050919050565b6000819050919050565b6000620002516200024b62000245846200021c565b62000226565b6200021c565b9050919050565b6000819050919050565b6200026d8362000230565b620002856200027c8262000258565b848454620001c6565b825550505050565b600090565b6200029c6200028d565b620002a981848462000262565b505050565b5b81811015620002d157620002c560008262000292565b600181019050620002af565b5050565b601f8211156200032057620002ea8162000194565b620002f584620001a9565b8101602085101562000305578190505b6200031d6200031485620001a9565b830182620002ae565b50505b505050565b600082821c905092915050565b6000620003456000198460080262000325565b1980831691505092915050565b600062000360838362000332565b9150826002028217905092915050565b6200037b82620000f6565b67ffffffffffffffff81111562000397576200039662000101565b5b620003a382546200015f565b620003b0828285620002d5565b600060209050601f831160018114620003e85760008415620003d3578287015190505b620003df858262000352565b8655506200044f565b601f198416620003f88662000194565b60005b828110156200042257848901518255600182019150602085019450602081019050620003fb565b868310156200044257848901516200043e601f89168262000332565b8355505b6001600288020188555050505b505050505050565b61435580620004676000396000f3fe60806040526004361061012a5760003560e01c80636352211e116100ab578063ae677aa31161006f578063ae677aa3146103f9578063b88d4fde14610415578063be9af5361461043e578063c87b56dd1461045a578063e219fc7514610497578063e985e9c5146104b35761012a565b80636352211e146102fb57806370a082311461033857806372b3b6201461037557806395d89b41146103a5578063a22cb465146103d05761012a565b806312e85585116100f257806312e8558514610228578063202e37401461025357806323b872dd1461027e57806342842e0e146102a757806345f8fa80146102d05761012a565b806301ffc9a71461012f57806306fdde031461016c578063081812fc14610197578063095ea7b3146101d45780630f08efe0146101fd575b600080fd5b34801561013b57600080fd5b5061015660048036038101906101519190612b87565b6104f0565b6040516101639190612bcf565b60405180910390f35b34801561017857600080fd5b506101816105d2565b60405161018e9190612c7a565b60405180910390f35b3480156101a357600080fd5b506101be60048036038101906101b99190612cd2565b610664565b6040516101cb9190612d40565b60405180910390f35b3480156101e057600080fd5b506101fb60048036038101906101f69190612d87565b6106aa565b005b34801561020957600080fd5b506102126107c1565b60405161021f9190612f1d565b60405180910390f35b34801561023457600080fd5b5061023d610a29565b60405161024a9190612f4e565b60405180910390f35b34801561025f57600080fd5b50610268610a33565b6040516102759190612f1d565b60405180910390f35b34801561028a57600080fd5b506102a560048036038101906102a09190612f69565b610d1f565b005b3480156102b357600080fd5b506102ce60048036038101906102c99190612f69565b610d7f565b005b3480156102dc57600080fd5b506102e5610d9f565b6040516102f29190612f1d565b60405180910390f35b34801561030757600080fd5b50610322600480360381019061031d9190612cd2565b61108b565b60405161032f9190612d40565b60405180910390f35b34801561034457600080fd5b5061035f600480360381019061035a9190612fbc565b611111565b60405161036c9190612f4e565b60405180910390f35b61038f600480360381019061038a919061311e565b6111c8565b60405161039c9190612f4e565b60405180910390f35b3480156103b157600080fd5b506103ba61120a565b6040516103c79190612c7a565b60405180910390f35b3480156103dc57600080fd5b506103f760048036038101906103f291906131a6565b61129c565b005b610413600480360381019061040e9190612cd2565b6112b2565b005b34801561042157600080fd5b5061043c60048036038101906104379190613287565b6113dc565b005b61045860048036038101906104539190612cd2565b61143e565b005b34801561046657600080fd5b50610481600480360381019061047c9190612cd2565b611676565b60405161048e9190612c7a565b60405180910390f35b6104b160048036038101906104ac919061330a565b611788565b005b3480156104bf57600080fd5b506104da60048036038101906104d5919061334a565b61197d565b6040516104e79190612bcf565b60405180910390f35b60007f80ac58cd000000000000000000000000000000000000000000000000000000007bffffffffffffffffffffffffffffffffffffffffffffffffffffffff1916827bffffffffffffffffffffffffffffffffffffffffffffffffffffffff191614806105bb57507f5b5e139f000000000000000000000000000000000000000000000000000000007bffffffffffffffffffffffffffffffffffffffffffffffffffffffff1916827bffffffffffffffffffffffffffffffffffffffffffffffffffffffff1916145b806105cb57506105ca82611a11565b5b9050919050565b6060600080546105e1906133b9565b80601f016020809104026020016040519081016040528092919081815260200182805461060d906133b9565b801561065a5780601f1061062f5761010080835404028352916020019161065a565b820191906000526020600020905b81548152906001019060200180831161063d57829003601f168201915b5050505050905090565b600061066f82611a7b565b6004600083815260200190815260200160002060009054906101000a900473ffffffffffffffffffffffffffffffffffffffff169050919050565b60006106b58261108b565b90508073ffffffffffffffffffffffffffffffffffffffff168373ffffffffffffffffffffffffffffffffffffffff1603610725576040517f08c379a000000000000000000000000000000000000000000000000000000000815260040161071c9061345c565b60405180910390fd5b8073ffffffffffffffffffffffffffffffffffffffff16610744611ac6565b73ffffffffffffffffffffffffffffffffffffffff16148061077357506107728161076d611ac6565b61197d565b5b6107b2576040517f08c379a00000000000000000000000000000000000000000000000000000000081526004016107a9906134ee565b60405180910390fd5b6107bc8383611ace565b505050565b606060006107cf6007611b87565b905060006107dd6008611b87565b6107e76007611b87565b6107f1919061353d565b90506000808267ffffffffffffffff8111156108105761080f612ff3565b5b60405190808252806020026020018201604052801561084957816020015b610836612abe565b81526020019060019003908161082e5790505b50905060005b84811015610a1e573073ffffffffffffffffffffffffffffffffffffffff16600b600060018461087f9190613571565b815260200190815260200160002060020160009054906101000a900473ffffffffffffffffffffffffffffffffffffffff1673ffffffffffffffffffffffffffffffffffffffff1603610a0b5760006001826108db9190613571565b90506000600b60008381526020019081526020016000209050806040518060a0016040529081600082015481526020016001820160009054906101000a900473ffffffffffffffffffffffffffffffffffffffff1673ffffffffffffffffffffffffffffffffffffffff1673ffffffffffffffffffffffffffffffffffffffff1681526020016002820160009054906101000a900473ffffffffffffffffffffffffffffffffffffffff1673ffffffffffffffffffffffffffffffffffffffff1673ffffffffffffffffffffffffffffffffffffffff168152602001600382015481526020016004820160009054906101000a900460ff1615151515815250508486815181106109ee576109ed6135a5565b5b6020026020010181905250600185610a069190613571565b945050505b8080610a16906135d4565b91505061084f565b508094505050505090565b6000600954905090565b60606000610a416007611b87565b905060008060005b83811015610ae9573373ffffffffffffffffffffffffffffffffffffffff16600b6000600184610a799190613571565b815260200190815260200160002060020160009054906101000a900473ffffffffffffffffffffffffffffffffffffffff1673ffffffffffffffffffffffffffffffffffffffff1603610ad657600183610ad39190613571565b92505b8080610ae1906135d4565b915050610a49565b5060008267ffffffffffffffff811115610b0657610b05612ff3565b5b604051908082528060200260200182016040528015610b3f57816020015b610b2c612abe565b815260200190600190039081610b245790505b50905060005b84811015610d14573373ffffffffffffffffffffffffffffffffffffffff16600b6000600184610b759190613571565b815260200190815260200160002060020160009054906101000a900473ffffffffffffffffffffffffffffffffffffffff1673ffffffffffffffffffffffffffffffffffffffff1603610d01576000600182610bd19190613571565b90506000600b60008381526020019081526020016000209050806040518060a0016040529081600082015481526020016001820160009054906101000a900473ffffffffffffffffffffffffffffffffffffffff1673ffffffffffffffffffffffffffffffffffffffff1673ffffffffffffffffffffffffffffffffffffffff1681526020016002820160009054906101000a900473ffffffffffffffffffffffffffffffffffffffff1673ffffffffffffffffffffffffffffffffffffffff1673ffffffffffffffffffffffffffffffffffffffff168152602001600382015481526020016004820160009054906101000a900460ff161515151581525050848681518110610ce457610ce36135a5565b5b6020026020010181905250600185610cfc9190613571565b945050505b8080610d0c906135d4565b915050610b45565b508094505050505090565b610d30610d2a611ac6565b82611b95565b610d6f576040517f08c379a0000000000000000000000000000000000000000000000000000000008152600401610d669061368e565b60405180910390fd5b610d7a838383611c2a565b505050565b610d9a838383604051806020016040528060008152506113dc565b505050565b60606000610dad6007611b87565b905060008060005b83811015610e55573373ffffffffffffffffffffffffffffffffffffffff16600b6000600184610de59190613571565b815260200190815260200160002060010160009054906101000a900473ffffffffffffffffffffffffffffffffffffffff1673ffffffffffffffffffffffffffffffffffffffff1603610e4257600183610e3f9190613571565b92505b8080610e4d906135d4565b915050610db5565b5060008267ffffffffffffffff811115610e7257610e71612ff3565b5b604051908082528060200260200182016040528015610eab57816020015b610e98612abe565b815260200190600190039081610e905790505b50905060005b84811015611080573373ffffffffffffffffffffffffffffffffffffffff16600b6000600184610ee19190613571565b815260200190815260200160002060010160009054906101000a900473ffffffffffffffffffffffffffffffffffffffff1673ffffffffffffffffffffffffffffffffffffffff160361106d576000600182610f3d9190613571565b90506000600b60008381526020019081526020016000209050806040518060a0016040529081600082015481526020016001820160009054906101000a900473ffffffffffffffffffffffffffffffffffffffff1673ffffffffffffffffffffffffffffffffffffffff1673ffffffffffffffffffffffffffffffffffffffff1681526020016002820160009054906101000a900473ffffffffffffffffffffffffffffffffffffffff1673ffffffffffffffffffffffffffffffffffffffff1673ffffffffffffffffffffffffffffffffffffffff168152602001600382015481526020016004820160009054906101000a900460ff1615151515815250508486815181106110505761104f6135a5565b5b60200260200101819052506001856110689190613571565b945050505b8080611078906135d4565b915050610eb1565b508094505050505090565b60008061109783611f23565b9050600073ffffffffffffffffffffffffffffffffffffffff168173ffffffffffffffffffffffffffffffffffffffff1603611108576040517f08c379a00000000000000000000000000000000000000000000000000000000081526004016110ff906136fa565b60405180910390fd5b80915050919050565b60008073ffffffffffffffffffffffffffffffffffffffff168273ffffffffffffffffffffffffffffffffffffffff1603611181576040517f08c379a00000000000000000000000000000000000000000000000000000000081526004016111789061378c565b60405180910390fd5b600360008373ffffffffffffffffffffffffffffffffffffffff1673ffffffffffffffffffffffffffffffffffffffff168152602001908152602001600020549050919050565b60006111d46007611f60565b60006111e06007611b87565b90506111ec3382611f76565b6111f68185612193565b6112008184612200565b8091505092915050565b606060018054611219906133b9565b80601f0160208091040260200160405190810160405280929190818152602001828054611245906133b9565b80156112925780601f1061126757610100808354040283529160200191611292565b820191906000526020600020905b81548152906001019060200180831161127557829003601f168201915b5050505050905090565b6112ae6112a7611ac6565b8383612403565b5050565b600a60009054906101000a900473ffffffffffffffffffffffffffffffffffffffff1673ffffffffffffffffffffffffffffffffffffffff163373ffffffffffffffffffffffffffffffffffffffff1614611342576040517f08c379a00000000000000000000000000000000000000000000000000000000081526004016113399061381e565b60405180910390fd5b3373ffffffffffffffffffffffffffffffffffffffff16600a60009054906101000a900473ffffffffffffffffffffffffffffffffffffffff1673ffffffffffffffffffffffffffffffffffffffff16146113d2576040517f08c379a00000000000000000000000000000000000000000000000000000000081526004016113c9906138b0565b60405180910390fd5b8060098190555050565b6113ed6113e7611ac6565b83611b95565b61142c576040517f08c379a00000000000000000000000000000000000000000000000000000000081526004016114239061368e565b60405180910390fd5b6114388484848461256f565b50505050565b6000600b600083815260200190815260200160002060030154905080341461149b576040517f08c379a000000000000000000000000000000000000000000000000000000000815260040161149290613942565b60405180910390fd5b33600b600084815260200190815260200160002060020160006101000a81548173ffffffffffffffffffffffffffffffffffffffff021916908373ffffffffffffffffffffffffffffffffffffffff1602179055506001600b600084815260200190815260200160002060040160006101000a81548160ff0219169083151502179055506000600b600084815260200190815260200160002060010160006101000a81548173ffffffffffffffffffffffffffffffffffffffff021916908373ffffffffffffffffffffffffffffffffffffffff16021790555061157f6008611f60565b61158a303384611c2a565b600a60009054906101000a900473ffffffffffffffffffffffffffffffffffffffff1673ffffffffffffffffffffffffffffffffffffffff166108fc6009549081150290604051600060405180830381858888f193505050501580156115f4573d6000803e3d6000fd5b50600b600083815260200190815260200160002060010160009054906101000a900473ffffffffffffffffffffffffffffffffffffffff1673ffffffffffffffffffffffffffffffffffffffff166108fc349081150290604051600060405180830381858888f19350505050158015611671573d6000803e3d6000fd5b505050565b606061168182611a7b565b60006006600084815260200190815260200160002080546116a1906133b9565b80601f01602080910402602001604051908101604052809291908181526020018280546116cd906133b9565b801561171a5780601f106116ef5761010080835404028352916020019161171a565b820191906000526020600020905b8154815290600101906020018083116116fd57829003601f168201915b50505050509050600061172b6125cb565b90506000815103611740578192505050611783565b60008251111561177557808260405160200161175d92919061399e565b60405160208183030381529060405292505050611783565b61177e846125e2565b925050505b919050565b3373ffffffffffffffffffffffffffffffffffffffff16600b600084815260200190815260200160002060020160009054906101000a900473ffffffffffffffffffffffffffffffffffffffff1673ffffffffffffffffffffffffffffffffffffffff161461182c576040517f08c379a000000000000000000000000000000000000000000000000000000000815260040161182390613a34565b60405180910390fd5b6009543414611870576040517f08c379a000000000000000000000000000000000000000000000000000000000815260040161186790613ac6565b60405180910390fd5b6000600b600084815260200190815260200160002060040160006101000a81548160ff02191690831515021790555080600b60008481526020019081526020016000206003018190555033600b600084815260200190815260200160002060010160006101000a81548173ffffffffffffffffffffffffffffffffffffffff021916908373ffffffffffffffffffffffffffffffffffffffff16021790555030600b600084815260200190815260200160002060020160006101000a81548173ffffffffffffffffffffffffffffffffffffffff021916908373ffffffffffffffffffffffffffffffffffffffff16021790555061196e600861264a565b611979333084611c2a565b5050565b6000600560008473ffffffffffffffffffffffffffffffffffffffff1673ffffffffffffffffffffffffffffffffffffffff16815260200190815260200160002060008373ffffffffffffffffffffffffffffffffffffffff1673ffffffffffffffffffffffffffffffffffffffff16815260200190815260200160002060009054906101000a900460ff16905092915050565b60007f01ffc9a7000000000000000000000000000000000000000000000000000000007bffffffffffffffffffffffffffffffffffffffffffffffffffffffff1916827bffffffffffffffffffffffffffffffffffffffffffffffffffffffff1916149050919050565b611a84816126a6565b611ac3576040517f08c379a0000000000000000000000000000000000000000000000000000000008152600401611aba906136fa565b60405180910390fd5b50565b600033905090565b816004600083815260200190815260200160002060006101000a81548173ffffffffffffffffffffffffffffffffffffffff021916908373ffffffffffffffffffffffffffffffffffffffff160217905550808273ffffffffffffffffffffffffffffffffffffffff16611b418361108b565b73ffffffffffffffffffffffffffffffffffffffff167f8c5be1e5ebec7d5bd14f71427d1e84f3dd0314c0f7b2291e5b200ac8c7c3b92560405160405180910390a45050565b600081600001549050919050565b600080611ba18361108b565b90508073ffffffffffffffffffffffffffffffffffffffff168473ffffffffffffffffffffffffffffffffffffffff161480611be35750611be2818561197d565b5b80611c2157508373ffffffffffffffffffffffffffffffffffffffff16611c0984610664565b73ffffffffffffffffffffffffffffffffffffffff16145b91505092915050565b8273ffffffffffffffffffffffffffffffffffffffff16611c4a8261108b565b73ffffffffffffffffffffffffffffffffffffffff1614611ca0576040517f08c379a0000000000000000000000000000000000000000000000000000000008152600401611c9790613b58565b60405180910390fd5b600073ffffffffffffffffffffffffffffffffffffffff168273ffffffffffffffffffffffffffffffffffffffff1603611d0f576040517f08c379a0000000000000000000000000000000000000000000000000000000008152600401611d0690613bea565b60405180910390fd5b611d1c83838360016126e7565b8273ffffffffffffffffffffffffffffffffffffffff16611d3c8261108b565b73ffffffffffffffffffffffffffffffffffffffff1614611d92576040517f08c379a0000000000000000000000000000000000000000000000000000000008152600401611d8990613b58565b60405180910390fd5b6004600082815260200190815260200160002060006101000a81549073ffffffffffffffffffffffffffffffffffffffff02191690556001600360008573ffffffffffffffffffffffffffffffffffffffff1673ffffffffffffffffffffffffffffffffffffffff168152602001908152602001600020600082825403925050819055506001600360008473ffffffffffffffffffffffffffffffffffffffff1673ffffffffffffffffffffffffffffffffffffffff16815260200190815260200160002060008282540192505081905550816002600083815260200190815260200160002060006101000a81548173ffffffffffffffffffffffffffffffffffffffff021916908373ffffffffffffffffffffffffffffffffffffffff160217905550808273ffffffffffffffffffffffffffffffffffffffff168473ffffffffffffffffffffffffffffffffffffffff167fddf252ad1be2c89b69c2b068fc378daa952ba7f163c4a11628f55a4df523b3ef60405160405180910390a4611f1e83838360016126ed565b505050565b60006002600083815260200190815260200160002060009054906101000a900473ffffffffffffffffffffffffffffffffffffffff169050919050565b6001816000016000828254019250508190555050565b600073ffffffffffffffffffffffffffffffffffffffff168273ffffffffffffffffffffffffffffffffffffffff1603611fe5576040517f08c379a0000000000000000000000000000000000000000000000000000000008152600401611fdc90613c56565b60405180910390fd5b611fee816126a6565b1561202e576040517f08c379a000000000000000000000000000000000000000000000000000000000815260040161202590613cc2565b60405180910390fd5b61203c6000838360016126e7565b612045816126a6565b15612085576040517f08c379a000000000000000000000000000000000000000000000000000000000815260040161207c90613cc2565b60405180910390fd5b6001600360008473ffffffffffffffffffffffffffffffffffffffff1673ffffffffffffffffffffffffffffffffffffffff16815260200190815260200160002060008282540192505081905550816002600083815260200190815260200160002060006101000a81548173ffffffffffffffffffffffffffffffffffffffff021916908373ffffffffffffffffffffffffffffffffffffffff160217905550808273ffffffffffffffffffffffffffffffffffffffff16600073ffffffffffffffffffffffffffffffffffffffff167fddf252ad1be2c89b69c2b068fc378daa952ba7f163c4a11628f55a4df523b3ef60405160405180910390a461218f6000838360016126ed565b5050565b61219c826126a6565b6121db576040517f08c379a00000000000000000000000000000000000000000000000000000000081526004016121d290613d54565b60405180910390fd5b806006600084815260200190815260200160002090816121fb9190613f20565b505050565b60008111612243576040517f08c379a000000000000000000000000000000000000000000000000000000000815260040161223a9061403e565b60405180910390fd5b6009543414612287576040517f08c379a000000000000000000000000000000000000000000000000000000000815260040161227e90613ac6565b60405180910390fd5b6040518060a001604052808381526020013373ffffffffffffffffffffffffffffffffffffffff1681526020013073ffffffffffffffffffffffffffffffffffffffff16815260200182815260200160001515815250600b60008481526020019081526020016000206000820151816000015560208201518160010160006101000a81548173ffffffffffffffffffffffffffffffffffffffff021916908373ffffffffffffffffffffffffffffffffffffffff16021790555060408201518160020160006101000a81548173ffffffffffffffffffffffffffffffffffffffff021916908373ffffffffffffffffffffffffffffffffffffffff1602179055506060820151816003015560808201518160040160006101000a81548160ff0219169083151502179055509050506123c0333084611c2a565b817fb640004f1d14576d0c209e240cad0410e0d8c0c33a09375861fbadae2588a98d33308460006040516123f7949392919061405e565b60405180910390a25050565b8173ffffffffffffffffffffffffffffffffffffffff168373ffffffffffffffffffffffffffffffffffffffff1603612471576040517f08c379a0000000000000000000000000000000000000000000000000000000008152600401612468906140ef565b60405180910390fd5b80600560008573ffffffffffffffffffffffffffffffffffffffff1673ffffffffffffffffffffffffffffffffffffffff16815260200190815260200160002060008473ffffffffffffffffffffffffffffffffffffffff1673ffffffffffffffffffffffffffffffffffffffff16815260200190815260200160002060006101000a81548160ff0219169083151502179055508173ffffffffffffffffffffffffffffffffffffffff168373ffffffffffffffffffffffffffffffffffffffff167f17307eab39ab6107e8899845ad3d59bd9653f200f220920489ca2b5937696c31836040516125629190612bcf565b60405180910390a3505050565b61257a848484611c2a565b612586848484846126f3565b6125c5576040517f08c379a00000000000000000000000000000000000000000000000000000000081526004016125bc90614181565b60405180910390fd5b50505050565b606060405180602001604052806000815250905090565b60606125ed82611a7b565b60006125f76125cb565b905060008151116126175760405180602001604052806000815250612642565b806126218461287a565b60405160200161263292919061399e565b6040516020818303038152906040525b915050919050565b60008160000154905060008111612696576040517f08c379a000000000000000000000000000000000000000000000000000000000815260040161268d906141ed565b60405180910390fd5b6001810382600001819055505050565b60008073ffffffffffffffffffffffffffffffffffffffff166126c883611f23565b73ffffffffffffffffffffffffffffffffffffffff1614159050919050565b50505050565b50505050565b60006127148473ffffffffffffffffffffffffffffffffffffffff16612948565b1561286d578373ffffffffffffffffffffffffffffffffffffffff1663150b7a0261273d611ac6565b8786866040518563ffffffff1660e01b815260040161275f9493929190614262565b6020604051808303816000875af192505050801561279b57506040513d601f19601f8201168201806040525081019061279891906142c3565b60015b61281d573d80600081146127cb576040519150601f19603f3d011682016040523d82523d6000602084013e6127d0565b606091505b506000815103612815576040517f08c379a000000000000000000000000000000000000000000000000000000000815260040161280c90614181565b60405180910390fd5b805181602001fd5b63150b7a0260e01b7bffffffffffffffffffffffffffffffffffffffffffffffffffffffff1916817bffffffffffffffffffffffffffffffffffffffffffffffffffffffff191614915050612872565b600190505b949350505050565b6060600060016128898461296b565b01905060008167ffffffffffffffff8111156128a8576128a7612ff3565b5b6040519080825280601f01601f1916602001820160405280156128da5781602001600182028036833780820191505090505b509050600082602001820190505b60011561293d578080600190039150507f3031323334353637383961626364656600000000000000000000000000000000600a86061a8153600a8581612931576129306142f0565b5b049450600085036128e8575b819350505050919050565b6000808273ffffffffffffffffffffffffffffffffffffffff163b119050919050565b600080600090507a184f03e93ff9f4daa797ed6e38ed64bf6a1f01000000000000000083106129c9577a184f03e93ff9f4daa797ed6e38ed64bf6a1f01000000000000000083816129bf576129be6142f0565b5b0492506040810190505b6d04ee2d6d415b85acef81000000008310612a06576d04ee2d6d415b85acef810000000083816129fc576129fb6142f0565b5b0492506020810190505b662386f26fc100008310612a3557662386f26fc100008381612a2b57612a2a6142f0565b5b0492506010810190505b6305f5e1008310612a5e576305f5e1008381612a5457612a536142f0565b5b0492506008810190505b6127108310612a83576127108381612a7957612a786142f0565b5b0492506004810190505b60648310612aa65760648381612a9c57612a9b6142f0565b5b0492506002810190505b600a8310612ab5576001810190505b80915050919050565b6040518060a0016040528060008152602001600073ffffffffffffffffffffffffffffffffffffffff168152602001600073ffffffffffffffffffffffffffffffffffffffff168152602001600081526020016000151581525090565b6000604051905090565b600080fd5b600080fd5b60007fffffffff0000000000000000000000000000000000000000000000000000000082169050919050565b612b6481612b2f565b8114612b6f57600080fd5b50565b600081359050612b8181612b5b565b92915050565b600060208284031215612b9d57612b9c612b25565b5b6000612bab84828501612b72565b91505092915050565b60008115159050919050565b612bc981612bb4565b82525050565b6000602082019050612be46000830184612bc0565b92915050565b600081519050919050565b600082825260208201905092915050565b60005b83811015612c24578082015181840152602081019050612c09565b60008484015250505050565b6000601f19601f8301169050919050565b6000612c4c82612bea565b612c568185612bf5565b9350612c66818560208601612c06565b612c6f81612c30565b840191505092915050565b60006020820190508181036000830152612c948184612c41565b905092915050565b6000819050919050565b612caf81612c9c565b8114612cba57600080fd5b50565b600081359050612ccc81612ca6565b92915050565b600060208284031215612ce857612ce7612b25565b5b6000612cf684828501612cbd565b91505092915050565b600073ffffffffffffffffffffffffffffffffffffffff82169050919050565b6000612d2a82612cff565b9050919050565b612d3a81612d1f565b82525050565b6000602082019050612d556000830184612d31565b92915050565b612d6481612d1f565b8114612d6f57600080fd5b50565b600081359050612d8181612d5b565b92915050565b60008060408385031215612d9e57612d9d612b25565b5b6000612dac85828601612d72565b9250506020612dbd85828601612cbd565b9150509250929050565b600081519050919050565b600082825260208201905092915050565b6000819050602082019050919050565b612dfc81612c9c565b82525050565b6000612e0d82612cff565b9050919050565b612e1d81612e02565b82525050565b612e2c81612bb4565b82525050565b60a082016000820151612e486000850182612df3565b506020820151612e5b6020850182612e14565b506040820151612e6e6040850182612e14565b506060820151612e816060850182612df3565b506080820151612e946080850182612e23565b50505050565b6000612ea68383612e32565b60a08301905092915050565b6000602082019050919050565b6000612eca82612dc7565b612ed48185612dd2565b9350612edf83612de3565b8060005b83811015612f10578151612ef78882612e9a565b9750612f0283612eb2565b925050600181019050612ee3565b5085935050505092915050565b60006020820190508181036000830152612f378184612ebf565b905092915050565b612f4881612c9c565b82525050565b6000602082019050612f636000830184612f3f565b92915050565b600080600060608486031215612f8257612f81612b25565b5b6000612f9086828701612d72565b9350506020612fa186828701612d72565b9250506040612fb286828701612cbd565b9150509250925092565b600060208284031215612fd257612fd1612b25565b5b6000612fe084828501612d72565b91505092915050565b600080fd5b600080fd5b7f4e487b7100000000000000000000000000000000000000000000000000000000600052604160045260246000fd5b61302b82612c30565b810181811067ffffffffffffffff8211171561304a57613049612ff3565b5b80604052505050565b600061305d612b1b565b90506130698282613022565b919050565b600067ffffffffffffffff82111561308957613088612ff3565b5b61309282612c30565b9050602081019050919050565b82818337600083830152505050565b60006130c16130bc8461306e565b613053565b9050828152602081018484840111156130dd576130dc612fee565b5b6130e884828561309f565b509392505050565b600082601f83011261310557613104612fe9565b5b81356131158482602086016130ae565b91505092915050565b6000806040838503121561313557613134612b25565b5b600083013567ffffffffffffffff81111561315357613152612b2a565b5b61315f858286016130f0565b925050602061317085828601612cbd565b9150509250929050565b61318381612bb4565b811461318e57600080fd5b50565b6000813590506131a08161317a565b92915050565b600080604083850312156131bd576131bc612b25565b5b60006131cb85828601612d72565b92505060206131dc85828601613191565b9150509250929050565b600067ffffffffffffffff82111561320157613200612ff3565b5b61320a82612c30565b9050602081019050919050565b600061322a613225846131e6565b613053565b90508281526020810184848401111561324657613245612fee565b5b61325184828561309f565b509392505050565b600082601f83011261326e5761326d612fe9565b5b813561327e848260208601613217565b91505092915050565b600080600080608085870312156132a1576132a0612b25565b5b60006132af87828801612d72565b94505060206132c087828801612d72565b93505060406132d187828801612cbd565b925050606085013567ffffffffffffffff8111156132f2576132f1612b2a565b5b6132fe87828801613259565b91505092959194509250565b6000806040838503121561332157613320612b25565b5b600061332f85828601612cbd565b925050602061334085828601612cbd565b9150509250929050565b6000806040838503121561336157613360612b25565b5b600061336f85828601612d72565b925050602061338085828601612d72565b9150509250929050565b7f4e487b7100000000000000000000000000000000000000000000000000000000600052602260045260246000fd5b600060028204905060018216806133d157607f821691505b6020821081036133e4576133e361338a565b5b50919050565b7f4552433732313a20617070726f76616c20746f2063757272656e74206f776e6560008201527f7200000000000000000000000000000000000000000000000000000000000000602082015250565b6000613446602183612bf5565b9150613451826133ea565b604082019050919050565b6000602082019050818103600083015261347581613439565b9050919050565b7f4552433732313a20617070726f76652063616c6c6572206973206e6f7420746f60008201527f6b656e206f776e6572206f7220617070726f76656420666f7220616c6c000000602082015250565b60006134d8603d83612bf5565b91506134e38261347c565b604082019050919050565b60006020820190508181036000830152613507816134cb565b9050919050565b7f4e487b7100000000000000000000000000000000000000000000000000000000600052601160045260246000fd5b600061354882612c9c565b915061355383612c9c565b925082820390508181111561356b5761356a61350e565b5b92915050565b600061357c82612c9c565b915061358783612c9c565b925082820190508082111561359f5761359e61350e565b5b92915050565b7f4e487b7100000000000000000000000000000000000000000000000000000000600052603260045260246000fd5b60006135df82612c9c565b91507fffffffffffffffffffffffffffffffffffffffffffffffffffffffffffffffff82036136115761361061350e565b5b600182019050919050565b7f4552433732313a2063616c6c6572206973206e6f7420746f6b656e206f776e6560008201527f72206f7220617070726f76656400000000000000000000000000000000000000602082015250565b6000613678602d83612bf5565b91506136838261361c565b604082019050919050565b600060208201905081810360008301526136a78161366b565b9050919050565b7f4552433732313a20696e76616c696420746f6b656e2049440000000000000000600082015250565b60006136e4601883612bf5565b91506136ef826136ae565b602082019050919050565b60006020820190508181036000830152613713816136d7565b9050919050565b7f4552433732313a2061646472657373207a65726f206973206e6f74206120766160008201527f6c6964206f776e65720000000000000000000000000000000000000000000000602082015250565b6000613776602983612bf5565b91506137818261371a565b604082019050919050565b600060208201905081810360008301526137a581613769565b9050919050565b7f6f6e6c79206f776e6572206f6620746865206d61726b6574706c61636520636160008201527f6e206368616e676520746865206c697374696e67207072696365000000000000602082015250565b6000613808603a83612bf5565b9150613813826137ac565b604082019050919050565b60006020820190508181036000830152613837816137fb565b9050919050565b7f4f6e6c79206d61726b6574706c616365206f776e65722063616e20757064617460008201527f65206c697374696e672070726963652e00000000000000000000000000000000602082015250565b600061389a603083612bf5565b91506138a58261383e565b604082019050919050565b600060208201905081810360008301526138c98161388d565b9050919050565b7f506c65617365207375626d6974207468652061736b696e67207072696365206960008201527f6e206f7264657220746f20636f6d706c65746520746865207075726368617365602082015250565b600061392c604083612bf5565b9150613937826138d0565b604082019050919050565b6000602082019050818103600083015261395b8161391f565b9050919050565b600081905092915050565b600061397882612bea565b6139828185613962565b9350613992818560208601612c06565b80840191505092915050565b60006139aa828561396d565b91506139b6828461396d565b91508190509392505050565b7f4f6e6c79206974656d206f776e65722063616e20706572666f726d207468697360008201527f206f7065726174696f6e00000000000000000000000000000000000000000000602082015250565b6000613a1e602a83612bf5565b9150613a29826139c2565b604082019050919050565b60006020820190508181036000830152613a4d81613a11565b9050919050565b7f5072696365206d75737420626520657175616c20746f206c697374696e67207060008201527f7269636500000000000000000000000000000000000000000000000000000000602082015250565b6000613ab0602483612bf5565b9150613abb82613a54565b604082019050919050565b60006020820190508181036000830152613adf81613aa3565b9050919050565b7f4552433732313a207472616e736665722066726f6d20696e636f72726563742060008201527f6f776e6572000000000000000000000000000000000000000000000000000000602082015250565b6000613b42602583612bf5565b9150613b4d82613ae6565b604082019050919050565b60006020820190508181036000830152613b7181613b35565b9050919050565b7f4552433732313a207472616e7366657220746f20746865207a65726f2061646460008201527f7265737300000000000000000000000000000000000000000000000000000000602082015250565b6000613bd4602483612bf5565b9150613bdf82613b78565b604082019050919050565b60006020820190508181036000830152613c0381613bc7565b9050919050565b7f4552433732313a206d696e7420746f20746865207a65726f2061646472657373600082015250565b6000613c40602083612bf5565b9150613c4b82613c0a565b602082019050919050565b60006020820190508181036000830152613c6f81613c33565b9050919050565b7f4552433732313a20746f6b656e20616c7265616479206d696e74656400000000600082015250565b6000613cac601c83612bf5565b9150613cb782613c76565b602082019050919050565b60006020820190508181036000830152613cdb81613c9f565b9050919050565b7f45524337323155524953746f726167653a2055524920736574206f66206e6f6e60008201527f6578697374656e7420746f6b656e000000000000000000000000000000000000602082015250565b6000613d3e602e83612bf5565b9150613d4982613ce2565b604082019050919050565b60006020820190508181036000830152613d6d81613d31565b9050919050565b60008190508160005260206000209050919050565b60006020601f8301049050919050565b600082821b905092915050565b600060088302613dd67fffffffffffffffffffffffffffffffffffffffffffffffffffffffffffffffff82613d99565b613de08683613d99565b95508019841693508086168417925050509392505050565b6000819050919050565b6000613e1d613e18613e1384612c9c565b613df8565b612c9c565b9050919050565b6000819050919050565b613e3783613e02565b613e4b613e4382613e24565b848454613da6565b825550505050565b600090565b613e60613e53565b613e6b818484613e2e565b505050565b5b81811015613e8f57613e84600082613e58565b600181019050613e71565b5050565b601f821115613ed457613ea581613d74565b613eae84613d89565b81016020851015613ebd578190505b613ed1613ec985613d89565b830182613e70565b50505b505050565b600082821c905092915050565b6000613ef760001984600802613ed9565b1980831691505092915050565b6000613f108383613ee6565b9150826002028217905092915050565b613f2982612bea565b67ffffffffffffffff811115613f4257613f41612ff3565b5b613f4c82546133b9565b613f57828285613e93565b600060209050601f831160018114613f8a5760008415613f78578287015190505b613f828582613f04565b865550613fea565b601f198416613f9886613d74565b60005b82811015613fc057848901518255600182019150602085019450602081019050613f9b565b86831015613fdd5784890151613fd9601f891682613ee6565b8355505b6001600288020188555050505b505050505050565b7f5072696365206d757374206265206174206c6561737420312077656900000000600082015250565b6000614028601c83612bf5565b915061403382613ff2565b602082019050919050565b600060208201905081810360008301526140578161401b565b9050919050565b60006080820190506140736000830187612d31565b6140806020830186612d31565b61408d6040830185612f3f565b61409a6060830184612bc0565b95945050505050565b7f4552433732313a20617070726f766520746f2063616c6c657200000000000000600082015250565b60006140d9601983612bf5565b91506140e4826140a3565b602082019050919050565b60006020820190508181036000830152614108816140cc565b9050919050565b7f4552433732313a207472616e7366657220746f206e6f6e20455243373231526560008201527f63656976657220696d706c656d656e7465720000000000000000000000000000602082015250565b600061416b603283612bf5565b91506141768261410f565b604082019050919050565b6000602082019050818103600083015261419a8161415e565b9050919050565b7f436f756e7465723a2064656372656d656e74206f766572666c6f770000000000600082015250565b60006141d7601b83612bf5565b91506141e2826141a1565b602082019050919050565b60006020820190508181036000830152614206816141ca565b9050919050565b600081519050919050565b600082825260208201905092915050565b60006142348261420d565b61423e8185614218565b935061424e818560208601612c06565b61425781612c30565b840191505092915050565b60006080820190506142776000830187612d31565b6142846020830186612d31565b6142916040830185612f3f565b81810360608301526142a38184614229565b905095945050505050565b6000815190506142bd81612b5b565b92915050565b6000602082840312156142d9576142d8612b25565b5b60006142e7848285016142ae565b91505092915050565b7f4e487b7100000000000000000000000000000000000000000000000000000000600052601260045260246000fdfea26469706673582212204171c1919d9d6199817954396e0ad2fb97bb5e791d576b1a97fcb5fd9281310764736f6c63430008120033",
  "linkReferences": {},
  "deployedLinkReferences": {}
}